S0170000626C696E64206D616E20737469636B2E737265636A
S113000012C02CC02BC02AC029C028C027C026C0BB
S113001034C224C023C03DC221C020C01FC01EC0A2
S11300201DC01CC01BC011241FBECFE5D4E0DEBF21
S1130030CDBF11E0A0E6B0E0ECE4F9E002C0059029
S11300400D92AC38B107D9F722E0ACE8B1E001C0B9
S11300501D92A432B207E1F73ED276C4D1CF8823F1
S113006091F090E0979AEFE2F5E73197F1F700C04D
S113007000009798EFE4F3EC3197F1F700C000002B
S11300809F5F9813EFCF0895982F907F98BBC098E7
S1130090C19AE3EFF1E03197F1F700C00000C19895
S11300A0E3EFF1E03197F1F700C000008295807F23
S11300B088BBC098C19A83EF91E00197F1F700C023
S11300C00000C198E3EFF1E03197F1F700C00000C0
S11300D00895982F907F98BBC09AC19AE3EFF1E0FE
S11300E03197F1F700C00000C198E3EFF1E03197D8
S11300F0F1F700C00000F0E18F9FC001112488BB1C
S1130100C09AC19A83EF91E00197F1F700C0000013
S1130110C198E3EFF1E03197F1F700C000000895D2
S113012081E0B2DF089580ECAFDF08950F931F9351
S1130130CF93DF93E82FF92FDF010D900020E9F72B
S113014011971A2F181B49F0082FC82FD92F8991FE
S1130150C0DF8C2F801B8117D0F3DF91CF911F91CB
S11301600F910895CF93DF9300D000D0CDB7DEB7C1
S113017090E8998390EC9A8394E99B8394ED9C8313
S11301806150FE01E80FF11D8081860F7DDF0F9025
S11301900F900F900F90DF91CF9108952AB12869A5
S11301A02AB920B5266820BD90BD89B978940895F0
S11301B0929A93988CE090E0F1DF8FE493EC0197AE
S11301C0F1F700C0000008952AB128612AB95798B0
S11301D020B5266820BD90BD89B908955F9BFECFE8
S11301E08CB108955D9BFECF8CB90895CF93DF93B6
S11301F0EC018881882329F02196F4DF899181110B
S1130200FCCFDF91CF910895882381F08150282F6E
S113021030E02F5F3F4F80E090E040E2FC01EC5380
S1130220FE4F4083019682179307C1F710928C0109
S113023008950F931F93CF93DF938C01EB0180E616
S113024090E0D4DF82E2CEDFC801D0DF82E2CADFF1
S11302508DE0C8DF2FE38DE093E021508040904093
S1130260E1F700C00000CE01C1DF8AE1BBDF2FEF60
S113027084E39CE0215080409040E1F700C00000FE
S1130280DF91CF911F910F910895EF92FF920F93F9
S11302901F93CF93DF9344DF82EB90E047DF43DF8C
S11302A083EC90E043DFCDECD1E00EEC11E00F2EB7
S11302B0FFECEF2EF1E0FF2EF02D81EA90E096DFC7
S11302C02FE788E391E0215080409040E1F700C09F
S11302D0000080E299DF8BEC90E088DFEFE7F8E341
S11302E021E0E150F0402040E1F700C000008881A7
S11302F08033F9F4F80180818C32D9F4F7018081DC
S11303008133B9F40DDF85ED90E010DF0CDF86EE6C
S113031090E00CDF86E990E069DFFFEF24E38CE0F6
S1130320F15020408040E1F700C000008EE2D1DEB1
S113033034C068E082E016DF87EF90E0F7DE9FE3E9
S1130340EDE0F3E09150E040F040E1F700C0000040
S113035068E082E007DF8EE2BCDE2FE789EA93E003
S1130360215080409040E1F700C000008EE2B1DEF1
S1130370EFE7F9EA23E0E150F0402040E1F700C064
S113038000008EE2A6DE8FE798E3E1E08150904022
S1130390E040E1F700C0000090CFDF91CF911F91C2
S11303A00F91FF90EF90089586E990E01FDF2FE70B
S11303B088E391E0215080409040E1F700C00000C4
S11303C08BE890E013DF2FE788E391E02150804031
S11303D09040E1F700C0000081EA90E007DF2FE7DA
S11303E088E391E0215080409040E1F700C0000094
S11303F08CEF90E0FBDE2FE788E391E02150804012
S11304009040E1F700C00000089596B1946896B951
S11304103E9AE3EFF1E03197F1F700C0000097B1A5
S1130420907E890F87B9369A3699FECF24B135B1BB
S1130430822F932F08958E988D9A9598959A88E097
S11304408A95F1F79598869BFECF1DBC1CBC8EB592
S113045081608EBD89B7846089BF78948699FECF08
S11304601EBCF8946CB57DB580E090E0DFD120E04F
S113047030E048E652E441D108951F920F920FB63E
S11304800F9211241DBC1CBC0F900FBE0F901F9027
S113049018951F920F920FB60F9211248F939F936A
S11304A0EF93FF9380918C01E82FF0E09CB1EC5323
S11304B0FE4F90838F5F803519F080938C0102C0CA
S11304C010928C01FF91EF919F918F910F900FBE2D
S11304D00F901F9018958A9A8B9A8F9A8E988D9A5E
S11304E02FEF84E39CE0215080409040E1F700C06E
S11304F0000083E0B4DD5CDE57DFC7DE82E0AFDD01
S1130500EFEFF4E32CE0E150F0402040E1F700C0CD
S113051000000F2EF4ECCF2EF1E0DF2EF02D0F2E85
S1130520F5EC8F2EF1E09F2EF02DC6ECD1E007EC18
S113053011E00F2EF8ECEF2EF1E0FF2EF02D7BDF13
S113054044D16233710514F483E089DD80E05DDF1A
S1130550853F9105A4F3939892988CE090E034DE63
S11305608FE493EC0197F1F700C0000037DE84328A
S1130570E9F734DEF601808331DEF40180832EDE78
S113058088832CDEF801808329DEF701808388814B
S1130590873461F7F80180818C3441F7F701808159
S11305A08C3421F710928C01A0908C01B12C16DEB2
S11305B0F501EC53FE4F808380918C018F5F809313
S11305C08C0190E0FC01ED53FE4F20812D3061F74A
S11305D0FC01EC53FE4F2083F60180818C3241F400
S11305E0F40180818C3221F488818C3209F45EC05C
S11305F0F1E0F0938C010F2EF5E16F2EF2E07F2EE7
S1130600F02D0F2EF1E22F2EF2E03F2EF02DF3010C
S113061081E0A82FB0E0AC53BE4F9C9191938F5FC3
S1130620E215F305B1F78EE080938C010F2EF5EB04
S11306304F2EF1E05F2EF02D0F2EF2ECAF2EF1E0F5
S1130640BF2EF02DF201A82FB0E0AC53BE4F9C9109
S113065091938F5FEA15FB05B1F731C0F3018191E6
S11306603F01C0DD62147304C9F780E191E0BEDD8F
S1130670F20181912F01B6DD4A145B04C9F78AE1C6
S1130680B1DDFFE72FE482E1F15020408040E1F743
S113069000C0000083E0E3DC9FEFE4E3FCE0915062
S11306A0E040F040E1F700C0000049CF81DD6CE19B
S11306B071E089E591E0BDDD85E0D1DCEDCF8BE132
S11306C080938C0175DD74DD80E690E08FDD82E23D
S11306D089DD89E591E08ADD82E284DD8DE082DDD9
S11306E02FE38DE093E0215080409040E1F700C07B
S11306F0000088E691E07ADDB1CF0CD0EBC0E3D006
S113070040F0DAD030F021F45F3F19F0CCC0511141
S113071015C1CFC0F0D098F39923C9F35523B1F391
S1130720951B550BBB27AA2762177307840738F05C
S11307309F5F5F4F220F331F441FAA1FA9F333D0BB
S11307400E2E3AF0E0E830D091505040E695001C6F
S1130750CAF729D0FE2F27D0660F771F881FBB1F2B
S1130760261737074807AB07B0E809F0BB0B802D05
S1130770BF01FF2793585F4F2AF09E3F510568F051
S113078092C0DCC05F3FECF3983EDCF3869577952E
S11307906795B795F7959F5FC9F7880F911D969553
S11307A0879597F90895E1E0660F771F881FBB1FAF
S11307B0621773078407BA0720F0621B730B840B5C
S11307C0BA0BEE1F88F7E095089504D06894B11130
S11307D0B5C0089598D088F09F5790F0B92F992705
S11307E0B751A0F0D1F0660F771F881F991F1AF038
S11307F0BA95C9F712C0B13081F09FD0B1E0089525
S11308009CC0672F782F8827B85F39F0B93FCCF3A5
S1130810869577956795B395D9F73EF4909580952D
S1130820709561957F4F8F4F9F4F0895E89409C04D
S113083097FB3EF490958095709561957F4F8F4F0F
S11308409F4F9923A9F0F92F96E9BB279395F69525
S1130850879577956795B795F111F8CFFAF4BB0FA3
S113086011F460FF1BC06F5F7F4F8F4F9F4F16C007
S1130870882311F096E911C0772321F09EE8872F91
S1130880762F05C0662371F096E8862F70E060E04D
S11308902AF09A95660F771F881FDAF7880F9695C6
S11308A0879597F9089597F99F6780E870E060E06D
S11308B008959FEF80EC089500240A9416161706F5
S11308C018060906089500240A941216130614063D
S11308D005060895092E0394000C11F4882352F0A0
S11308E0BB0F40F4BF2B11F460FF04C06F5F7F4F58
S11308F08F4F9F4F089557FD9058440F551F59F03F
S11309005F3F71F04795880F97FB991F61F09F3FF8
S113091079F087950895121613061406551FF2CF21
S11309204695F1DF08C0161617061806991FF1CF71
S113093086957105610508940895E894BB27662798
S10F09407727CB0197F90895F894FFCFB6
S113094C41542B434D47533D004645454442414396
S113095C4B204D4553534147450048415320424594
S113096C454E2053454E542121210041542B434DD7
S113097C47443D310D0041542B434D47463D310D09
S113098C00415445300D0041542B434D47523D31E9
S113099C0D0020736561726368696E6720666F72FF
S11309AC2020004E6574776F726B0041542B4352B8
S11309BC45473F0D00204C6F63616C204E65747786
S11309CC6F726B20200020207265676973746572E6
S11309DC65642E2E2E2000202020200041542B4311
S11309EC534D503D31372C3136372C302C300D00D3
S11309FC20616E64204C6F6E673A200041747465FC
S1130A0C6E74696F6E2E2E2E20736D6F6B65206461
S1130A1C6574656374656420627574204750532053
S1130A2C686173206E6F206C6F636B206F6E207324
S1130A3C6174656C6C697465002B323334393037EE
S1130A4C3831363631303100417474656E74696FE7
S1130A5C6E2E2E2E736D6F6B6520646574656374D6
S10F0A6C6564206174204C61743A200021
S9030000FC
